{
    "_format": "hh-sol-artifact-1",
    "contractName": "Flow",
    "sourceName": "contracts/flow/basic/Flow.sol",
    "abi": [
        {
            "anonymous": false,
            "inputs": [
                {
                    "indexed": false,
                    "internalType": "address",
                    "name": "sender",
                    "type": "address"
                },
                {
                    "indexed": false,
                    "internalType": "address",
                    "name": "interpreter",
                    "type": "address"
                },
                {
                    "indexed": false,
                    "internalType": "EncodedDispatch",
                    "name": "dispatch",
                    "type": "uint256"
                }
            ],
            "name": "FlowInitialized",
            "type": "event"
        },
        {
            "anonymous": false,
            "inputs": [
                {
                    "indexed": false,
                    "internalType": "address",
                    "name": "sender",
                    "type": "address"
                },
                {
                    "components": [
                        {
                            "components": [
                                {
                                    "internalType": "bytes[]",
                                    "name": "sources",
                                    "type": "bytes[]"
                                },
                                {
                                    "internalType": "uint256[]",
                                    "name": "constants",
                                    "type": "uint256[]"
                                }
                            ],
                            "internalType": "struct StateConfig",
                            "name": "stateConfig",
                            "type": "tuple"
                        },
                        {
                            "components": [
                                {
                                    "internalType": "address",
                                    "name": "expressionDeployer",
                                    "type": "address"
                                },
                                {
                                    "internalType": "address",
                                    "name": "interpreter",
                                    "type": "address"
                                },
                                {
                                    "components": [
                                        {
                                            "internalType": "bytes[]",
                                            "name": "sources",
                                            "type": "bytes[]"
                                        },
                                        {
                                            "internalType": "uint256[]",
                                            "name": "constants",
                                            "type": "uint256[]"
                                        }
                                    ],
                                    "internalType": "struct StateConfig[]",
                                    "name": "flows",
                                    "type": "tuple[]"
                                }
                            ],
                            "internalType": "struct FlowCommonConfig",
                            "name": "flowConfig",
                            "type": "tuple"
                        }
                    ],
                    "indexed": false,
                    "internalType": "struct FlowConfig",
                    "name": "config",
                    "type": "tuple"
                }
            ],
            "name": "Initialize",
            "type": "event"
        },
        {
            "anonymous": false,
            "inputs": [
                {
                    "indexed": false,
                    "internalType": "uint8",
                    "name": "version",
                    "type": "uint8"
                }
            ],
            "name": "Initialized",
            "type": "event"
        },
        {
            "inputs": [
                {
                    "internalType": "EncodedDispatch",
                    "name": "dispatch_",
                    "type": "uint256"
                },
                {
                    "internalType": "uint256",
                    "name": "id_",
                    "type": "uint256"
                },
                {
                    "components": [
                        {
                            "internalType": "address",
                            "name": "signer",
                            "type": "address"
                        },
                        {
                            "internalType": "bytes",
                            "name": "signature",
                            "type": "bytes"
                        },
                        {
                            "internalType": "uint256[]",
                            "name": "context",
                            "type": "uint256[]"
                        }
                    ],
                    "internalType": "struct SignedContext[]",
                    "name": "signedContexts_",
                    "type": "tuple[]"
                }
            ],
            "name": "flow",
            "outputs": [],
            "stateMutability": "payable",
            "type": "function"
        },
        {
            "inputs": [
                {
                    "components": [
                        {
                            "components": [
                                {
                                    "internalType": "bytes[]",
                                    "name": "sources",
                                    "type": "bytes[]"
                                },
                                {
                                    "internalType": "uint256[]",
                                    "name": "constants",
                                    "type": "uint256[]"
                                }
                            ],
                            "internalType": "struct StateConfig",
                            "name": "stateConfig",
                            "type": "tuple"
                        },
                        {
                            "components": [
                                {
                                    "internalType": "address",
                                    "name": "expressionDeployer",
                                    "type": "address"
                                },
                                {
                                    "internalType": "address",
                                    "name": "interpreter",
                                    "type": "address"
                                },
                                {
                                    "components": [
                                        {
                                            "internalType": "bytes[]",
                                            "name": "sources",
                                            "type": "bytes[]"
                                        },
                                        {
                                            "internalType": "uint256[]",
                                            "name": "constants",
                                            "type": "uint256[]"
                                        }
                                    ],
                                    "internalType": "struct StateConfig[]",
                                    "name": "flows",
                                    "type": "tuple[]"
                                }
                            ],
                            "internalType": "struct FlowCommonConfig",
                            "name": "flowConfig",
                            "type": "tuple"
                        }
                    ],
                    "internalType": "struct FlowConfig",
                    "name": "config_",
                    "type": "tuple"
                }
            ],
            "name": "initialize",
            "outputs": [],
            "stateMutability": "nonpayable",
            "type": "function"
        },
        {
            "inputs": [
                {
                    "internalType": "bytes[]",
                    "name": "data",
                    "type": "bytes[]"
                }
            ],
            "name": "multicall",
            "outputs": [
                {
                    "internalType": "bytes[]",
                    "name": "results",
                    "type": "bytes[]"
                }
            ],
            "stateMutability": "nonpayable",
            "type": "function"
        },
        {
            "inputs": [
                {
                    "internalType": "address",
                    "name": "",
                    "type": "address"
                },
                {
                    "internalType": "address",
                    "name": "",
                    "type": "address"
                },
                {
                    "internalType": "uint256[]",
                    "name": "",
                    "type": "uint256[]"
                },
                {
                    "internalType": "uint256[]",
                    "name": "",
                    "type": "uint256[]"
                },
                {
                    "internalType": "bytes",
                    "name": "",
                    "type": "bytes"
                }
            ],
            "name": "onERC1155BatchReceived",
            "outputs": [
                {
                    "internalType": "bytes4",
                    "name": "",
                    "type": "bytes4"
                }
            ],
            "stateMutability": "nonpayable",
            "type": "function"
        },
        {
            "inputs": [
                {
                    "internalType": "address",
                    "name": "",
                    "type": "address"
                },
                {
                    "internalType": "address",
                    "name": "",
                    "type": "address"
                },
                {
                    "internalType": "uint256",
                    "name": "",
                    "type": "uint256"
                },
                {
                    "internalType": "uint256",
                    "name": "",
                    "type": "uint256"
                },
                {
                    "internalType": "bytes",
                    "name": "",
                    "type": "bytes"
                }
            ],
            "name": "onERC1155Received",
            "outputs": [
                {
                    "internalType": "bytes4",
                    "name": "",
                    "type": "bytes4"
                }
            ],
            "stateMutability": "nonpayable",
            "type": "function"
        },
        {
            "inputs": [
                {
                    "internalType": "address",
                    "name": "",
                    "type": "address"
                },
                {
                    "internalType": "address",
                    "name": "",
                    "type": "address"
                },
                {
                    "internalType": "uint256",
                    "name": "",
                    "type": "uint256"
                },
                {
                    "internalType": "bytes",
                    "name": "",
                    "type": "bytes"
                }
            ],
            "name": "onERC721Received",
            "outputs": [
                {
                    "internalType": "bytes4",
                    "name": "",
                    "type": "bytes4"
                }
            ],
            "stateMutability": "nonpayable",
            "type": "function"
        },
        {
            "inputs": [
                {
                    "internalType": "EncodedDispatch",
                    "name": "dispatch_",
                    "type": "uint256"
                },
                {
                    "internalType": "uint256",
                    "name": "id_",
                    "type": "uint256"
                },
                {
                    "components": [
                        {
                            "internalType": "address",
                            "name": "signer",
                            "type": "address"
                        },
                        {
                            "internalType": "bytes",
                            "name": "signature",
                            "type": "bytes"
                        },
                        {
                            "internalType": "uint256[]",
                            "name": "context",
                            "type": "uint256[]"
                        }
                    ],
                    "internalType": "struct SignedContext[]",
                    "name": "signedContexts_",
                    "type": "tuple[]"
                }
            ],
            "name": "previewFlow",
            "outputs": [
                {
                    "components": [
                        {
                            "components": [
                                {
                                    "internalType": "address",
                                    "name": "from",
                                    "type": "address"
                                },
                                {
                                    "internalType": "address",
                                    "name": "to",
                                    "type": "address"
                                },
                                {
                                    "internalType": "uint256",
                                    "name": "amount",
                                    "type": "uint256"
                                }
                            ],
                            "internalType": "struct NativeTransfer[]",
                            "name": "native",
                            "type": "tuple[]"
                        },
                        {
                            "components": [
                                {
                                    "internalType": "address",
                                    "name": "token",
                                    "type": "address"
                                },
                                {
                                    "internalType": "address",
                                    "name": "from",
                                    "type": "address"
                                },
                                {
                                    "internalType": "address",
                                    "name": "to",
                                    "type": "address"
                                },
                                {
                                    "internalType": "uint256",
                                    "name": "amount",
                                    "type": "uint256"
                                }
                            ],
                            "internalType": "struct ERC20Transfer[]",
                            "name": "erc20",
                            "type": "tuple[]"
                        },
                        {
                            "components": [
                                {
                                    "internalType": "address",
                                    "name": "token",
                                    "type": "address"
                                },
                                {
                                    "internalType": "address",
                                    "name": "from",
                                    "type": "address"
                                },
                                {
                                    "internalType": "address",
                                    "name": "to",
                                    "type": "address"
                                },
                                {
                                    "internalType": "uint256",
                                    "name": "id",
                                    "type": "uint256"
                                }
                            ],
                            "internalType": "struct ERC721Transfer[]",
                            "name": "erc721",
                            "type": "tuple[]"
                        },
                        {
                            "components": [
                                {
                                    "internalType": "address",
                                    "name": "token",
                                    "type": "address"
                                },
                                {
                                    "internalType": "address",
                                    "name": "from",
                                    "type": "address"
                                },
                                {
                                    "internalType": "address",
                                    "name": "to",
                                    "type": "address"
                                },
                                {
                                    "internalType": "uint256",
                                    "name": "id",
                                    "type": "uint256"
                                },
                                {
                                    "internalType": "uint256",
                                    "name": "amount",
                                    "type": "uint256"
                                }
                            ],
                            "internalType": "struct ERC1155Transfer[]",
                            "name": "erc1155",
                            "type": "tuple[]"
                        }
                    ],
                    "internalType": "struct FlowTransfer",
                    "name": "",
                    "type": "tuple"
                }
            ],
            "stateMutability": "view",
            "type": "function"
        },
        {
            "inputs": [
                {
                    "internalType": "bytes4",
                    "name": "interfaceId",
                    "type": "bytes4"
                }
            ],
            "name": "supportsInterface",
            "outputs": [
                {
                    "internalType": "bool",
                    "name": "",
                    "type": "bool"
                }
            ],
            "stateMutability": "view",
            "type": "function"
        },
        {
            "stateMutability": "payable",
            "type": "receive"
        }
    ],
    "bytecode": "0x60806040523480156200001157600080fd5b506200001c62000022565b620000e4565b600054610100900460ff16156200008f5760405162461bcd60e51b815260206004820152602760248201527f496e697469616c697a61626c653a20636f6e747261637420697320696e697469604482015266616c697a696e6760c81b606482015260840160405180910390fd5b60005460ff9081161015620000e2576000805460ff191660ff9081179091556040519081527f7f26b83ff96e1f2b6a682f133852f6798a09c465da95921460cefb38474024989060200160405180910390a15b565b61371e80620000f46000396000f3fe60806040526004361061007f5760003560e01c8063a81db8f01161004e578063a81db8f014610184578063ac9650d814610197578063bc197c81146101c4578063f23a6e611461020957600080fd5b806301ffc9a71461008b578063150b7a02146100c057806371a4ddab1461013557806381e6a7111461016257600080fd5b3661008657005b600080fd5b34801561009757600080fd5b506100ab6100a636600461246d565b61024e565b60405190151581526020015b60405180910390f35b3480156100cc57600080fd5b506101046100db36600461262c565b7f150b7a0200000000000000000000000000000000000000000000000000000000949350505050565b6040517fffffffff0000000000000000000000000000000000000000000000000000000090911681526020016100b7565b34801561014157600080fd5b50610155610150366004612727565b6102e7565b6040516100b79190612967565b34801561016e57600080fd5b5061018261017d366004612a5c565b61032b565b005b610182610192366004612727565b610514565b3480156101a357600080fd5b506101b76101b2366004612a97565b6105c9565b6040516100b79190612bcf565b3480156101d057600080fd5b506101046101df366004612be2565b7fbc197c810000000000000000000000000000000000000000000000000000000095945050505050565b34801561021557600080fd5b50610104610224366004612c90565b7ff23a6e610000000000000000000000000000000000000000000000000000000095945050505050565b60007fffffffff0000000000000000000000000000000000000000000000000000000082167f4e2312e00000000000000000000000000000000000000000000000000000000014806102e157507f01ffc9a7000000000000000000000000000000000000000000000000000000007fffffffff000000000000000000000000000000000000000000000000000000008316145b92915050565b6103126040518060800160405280606081526020016060815260200160608152602001606081525090565b600061031f8585856106be565b509150505b9392505050565b600054610100900460ff161580801561034b5750600054600160ff909116105b806103655750303b158015610365575060005460ff166001145b6103f6576040517f08c379a000000000000000000000000000000000000000000000000000000000815260206004820152602e60248201527f496e697469616c697a61626c653a20636f6e747261637420697320616c72656160448201527f647920696e697469616c697a656400000000000000000000000000000000000060648201526084015b60405180910390fd5b600080547fffffffffffffffffffffffffffffffffffffffffffffffffffffffffffffff00166001179055801561045457600080547fffffffffffffffffffffffffffffffffffffffffffffffffffffffffffff00ff166101001790555b6104746104646020840184612cf9565b61046d90612d37565b6004610718565b7fb8d34ea9112583c0d2407f9fed96f7cead0ef0015a7c3e6da620e7b95e13eb8d33836040516104a5929190613131565b60405180910390a1801561051057600080547fffffffffffffffffffffffffffffffffffffffffffffffffffffffffffff00ff169055604051600181527f7f26b83ff96e1f2b6a682f133852f6798a09c465da95921460cefb38474024989060200160405180910390a15b5050565b600260015403610580576040517f08c379a000000000000000000000000000000000000000000000000000000000815260206004820152601f60248201527f5265656e7472616e637947756172643a207265656e7472616e742063616c6c0060448201526064016103ed565b60026001556000806105938585856106be565b61012d5491935091506105be90839073ffffffffffffffffffffffffffffffffffffffff16836109eb565b505060018055505050565b60608167ffffffffffffffff8111156105e4576105e46124d4565b60405190808252806020026020018201604052801561061757816020015b60608152602001906001900390816106025790505b50905060005b828110156106b7576106873085858481811061063b5761063b613292565b905060200281019061064d91906132c1565b8080601f016020809104026020016040519081016040528093929190818152602001838380828437600092019190915250610a9b92505050565b82828151811061069957610699613292565b602002602001018190525080806106af90613326565b91505061061d565b5092915050565b6106e96040518060800160405280606081526020016060815260200160608152602001606081525090565b606060008060006106fb888888610bda565b92509250925061070b8383610fb3565b9890975095505050505050565b600054610100900460ff166107af576040517f08c379a000000000000000000000000000000000000000000000000000000000815260206004820152602b60248201527f496e697469616c697a61626c653a20636f6e7472616374206973206e6f74206960448201527f6e697469616c697a696e6700000000000000000000000000000000000000000060648201526084016103ed565b6107b76111bf565b6107bf6111bf565b6107c76111bf565b6004811015610832576040517f08c379a000000000000000000000000000000000000000000000000000000000815260206004820152601560248201527f424144204d494e20535441434b53204c454e475448000000000000000000000060448201526064016103ed565b602082015161012d80547fffffffffffffffffffffffff00000000000000000000000000000000000000001673ffffffffffffffffffffffffffffffffffffffff90921691909117905560005b8260400151518110156109e6576000836000015173ffffffffffffffffffffffffffffffffffffffff16631ed061d9856040015184815181106108c4576108c4613292565b60200260200101516108d586611258565b6040518363ffffffff1660e01b81526004016108f29291906133b5565b60408051808303816000875af1158015610910573d6000803e3d6000fd5b505050506040513d601f19601f820116820180604052508101906109349190613420565b5090506000602082901b77ffffffffffffffffffffffffffffffffffffffff000000001661ffff17600081815261012e60209081526040918290206001905587810151825133815273ffffffffffffffffffffffffffffffffffffffff909116918101919091529081018290529091507f0392789afa55e5b564b41f5e52285c849fc771b31ccc0e222999b6de72bc55949060600160405180910390a1505080806109de90613326565b91505061087f565b505050565b805115610a77576040517fce0dd62800000000000000000000000000000000000000000000000000000000815273ffffffffffffffffffffffffffffffffffffffff83169063ce0dd62890610a4490849060040161344e565b600060405180830381600087803b158015610a5e57600080fd5b505af1158015610a72573d6000803e3d6000fd5b505050505b610a808361128a565b610a89836114be565b610a928361164c565b6109e683611809565b606073ffffffffffffffffffffffffffffffffffffffff83163b610b41576040517f08c379a000000000000000000000000000000000000000000000000000000000815260206004820152602660248201527f416464726573733a2064656c65676174652063616c6c20746f206e6f6e2d636f60448201527f6e7472616374000000000000000000000000000000000000000000000000000060648201526084016103ed565b6000808473ffffffffffffffffffffffffffffffffffffffff1684604051610b699190613461565b600060405180830381855af49150503d8060008114610ba4576040519150601f19603f3d011682016040523d82523d6000602084013e610ba9565b606091505b5091509150610bd182826040518060600160405280602781526020016136c2602791396119e5565b95945050505050565b60008060606000610beb8787611a38565b90506000855167ffffffffffffffff811115610c0957610c096124d4565b604051908082528060200260200182016040528015610c32578160200160208202803683370190505b5090506000865160020167ffffffffffffffff811115610c5457610c546124d4565b604051908082528060200260200182016040528015610c8757816020015b6060815260200190600190039081610c725790505b50905060005b8751811015610e8757878181518110610ca857610ca8613292565b60200260200101516000015173ffffffffffffffffffffffffffffffffffffffff16838281518110610cdc57610cdc613292565b602002602001018181525050610ddb888281518110610cfd57610cfd613292565b602002602001015160000151610db88a8481518110610d1e57610d1e613292565b602002602001015160400151604051602001610d3a9190613473565b604080517fffffffffffffffffffffffffffffffffffffffffffffffffffffffffffffffe081840301815282825280516020918201207f19457468657265756d205369676e6564204d6573736167653a0a33320000000084830152603c8085019190915282518085039091018152605c909301909152815191012090565b8a8481518110610dca57610dca613292565b602002602001015160200151611abb565b610e41576040517f08c379a000000000000000000000000000000000000000000000000000000000815260206004820152601160248201527f494e56414c49445f5349474e415455524500000000000000000000000000000060448201526064016103ed565b878181518110610e5357610e53613292565b602002602001015160400151828260020181518110610e7457610e74613292565b6020908102919091010152600101610c8d565b508281600081518110610e9c57610e9c613292565b60200260200101819052508181600181518110610ebb57610ebb613292565b602090810291909101015261012d546040517f90e7d00b00000000000000000000000000000000000000000000000000000000815273ffffffffffffffffffffffffffffffffffffffff90911690600090819083906390e7d00b90610f26908f9088906004016134a9565b600060405180830381865afa158015610f43573d6000803e3d6000fd5b505050506040513d6000823e601f3d9081017fffffffffffffffffffffffffffffffffffffffffffffffffffffffffffffffe0168201604052610f89919081019061358c565b91509150610f978260200190565b8251909d6020918202909301019b509950975050505050505050565b610fde6040518060800160405280606081526020016060815260200160608152602001606081525090565b6110096040518060800160405280606081526020016060815260200160608152602001606081525090565b60408051808201909152601281527f5241494e5f464c4f575f53454e54494e454c0000000000000000000000000000602090910152606061106d84867ffea74d0c9bf4a3c28f0dd0674db22a3d7f8bf259c56af19f4ac1e735b156974f6003611c88565b80845260408051808201909152601281527f5241494e5f464c4f575f53454e54494e454c000000000000000000000000000060209091015290945090506110d784867ffea74d0c9bf4a3c28f0dd0674db22a3d7f8bf259c56af19f4ac1e735b156974f6004611c88565b602084810182905260408051808201909152601281527f5241494e5f464c4f575f53454e54494e454c0000000000000000000000000000910152909450905061114384867ffea74d0c9bf4a3c28f0dd0674db22a3d7f8bf259c56af19f4ac1e735b156974f6004611c88565b60408481018290528051808201909152601281527f5241494e5f464c4f575f53454e54494e454c000000000000000000000000000060209091015290945090506111b084867ffea74d0c9bf4a3c28f0dd0674db22a3d7f8bf259c56af19f4ac1e735b156974f6005611c88565b60608401525090949350505050565b600054610100900460ff16611256576040517f08c379a000000000000000000000000000000000000000000000000000000000815260206004820152602b60248201527f496e697469616c697a61626c653a20636f6e7472616374206973206e6f74206960448201527f6e697469616c697a696e6700000000000000000000000000000000000000000060648201526084016103ed565b565b604080516001808252818301909252606091600091906020808301908036833750505060208101939093525090919050565b60408051606081018252600080825260208201819052918101829052819060005b8451518110156114995784518051829081106112c9576112c9613292565b602002602001015191503373ffffffffffffffffffffffffffffffffffffffff16826000015173ffffffffffffffffffffffffffffffffffffffff160361139b57602082015173ffffffffffffffffffffffffffffffffffffffff16301461138d576040517f08c379a000000000000000000000000000000000000000000000000000000000815260206004820152601760248201527f554e535550504f525445445f4e41544956455f464c4f5700000000000000000060448201526064016103ed565b816040015184019350611491565b815173ffffffffffffffffffffffffffffffffffffffff16301461141b576040517f08c379a000000000000000000000000000000000000000000000000000000000815260206004820152601760248201527f554e535550504f525445445f4e41544956455f464c4f5700000000000000000060448201526064016103ed565b3373ffffffffffffffffffffffffffffffffffffffff16826020015173ffffffffffffffffffffffffffffffffffffffff160361146057816040015183019250611491565b6114918260400151836020015173ffffffffffffffffffffffffffffffffffffffff16611d3a90919063ffffffff16565b6001016112ab565b5082156114a857823403820191505b81156114b8576114b83383611d3a565b50505050565b6040805160808101825260008082526020820181905291810182905260608101829052905b8260200151518110156109e6578260200151818151811061150657611506613292565b602002602001015191503373ffffffffffffffffffffffffffffffffffffffff16826020015173ffffffffffffffffffffffffffffffffffffffff160361157d576040820151606083015183516115789273ffffffffffffffffffffffffffffffffffffffff90911691339190611e94565b611644565b3073ffffffffffffffffffffffffffffffffffffffff16826020015173ffffffffffffffffffffffffffffffffffffffff16036115e2576040820151606083015183516115789273ffffffffffffffffffffffffffffffffffffffff90911691611f70565b6040517f08c379a000000000000000000000000000000000000000000000000000000000815260206004820152601660248201527f554e535550504f525445445f45524332305f464c4f570000000000000000000060448201526064016103ed565b6001016114e3565b6040805160808101825260008082526020820181905291810182905260608101829052905b8260400151518110156109e6578260400151818151811061169457611694613292565b602002602001015191503373ffffffffffffffffffffffffffffffffffffffff16826020015173ffffffffffffffffffffffffffffffffffffffff1614806116f55750602082015173ffffffffffffffffffffffffffffffffffffffff1630145b61175b576040517f08c379a000000000000000000000000000000000000000000000000000000000815260206004820152601760248201527f554e535550504f525445445f4552433732315f464c4f5700000000000000000060448201526064016103ed565b81516020830151604080850151606086015191517f42842e0e00000000000000000000000000000000000000000000000000000000815273ffffffffffffffffffffffffffffffffffffffff9384166004820152908316602482015260448101919091529116906342842e0e90606401600060405180830381600087803b1580156117e557600080fd5b505af11580156117f9573d6000803e3d6000fd5b5050600190920191506116719050565b6040805160a0810182526000808252602082018190529181018290526060810182905260808101829052905b8260600151518110156109e6578260600151818151811061185857611858613292565b602002602001015191503373ffffffffffffffffffffffffffffffffffffffff16826020015173ffffffffffffffffffffffffffffffffffffffff1614806118b95750602082015173ffffffffffffffffffffffffffffffffffffffff1630145b61191f576040517f08c379a000000000000000000000000000000000000000000000000000000000815260206004820152601860248201527f554e535550504f525445445f455243313135355f464c4f57000000000000000060448201526064016103ed565b815160208301516040808501516060860151608087015192517ff242432a00000000000000000000000000000000000000000000000000000000815273ffffffffffffffffffffffffffffffffffffffff948516600482015291841660248301526044820152606481019190915260a06084820152600060a482015291169063f242432a9060c401600060405180830381600087803b1580156119c157600080fd5b505af11580156119d5573d6000803e3d6000fd5b5050600190920191506118359050565b606083156119f4575081610324565b825115611a045782518084602001fd5b816040517f08c379a00000000000000000000000000000000000000000000000000000000081526004016103ed91906135f0565b600082815261012e6020526040902054606090611ab1576040517f08c379a000000000000000000000000000000000000000000000000000000000815260206004820152601160248201527f554e524547495354455245445f464c4f5700000000000000000000000000000060448201526064016103ed565b6103243383611fc6565b6000806000611aca8585611ffa565b90925090506000816004811115611ae357611ae3613603565b148015611b1b57508573ffffffffffffffffffffffffffffffffffffffff168273ffffffffffffffffffffffffffffffffffffffff16145b15611b2b57600192505050610324565b6000808773ffffffffffffffffffffffffffffffffffffffff16631626ba7e60e01b8888604051602401611b60929190613632565b604080517fffffffffffffffffffffffffffffffffffffffffffffffffffffffffffffffe08184030181529181526020820180517bffffffffffffffffffffffffffffffffffffffffffffffffffffffff167fffffffff00000000000000000000000000000000000000000000000000000000909416939093179092529051611be99190613461565b600060405180830381855afa9150503d8060008114611c24576040519150601f19603f3d011682016040523d82523d6000602084013e611c29565b606091505b5091509150818015611c3c575080516020145b8015611c7c575080517f1626ba7e0000000000000000000000000000000000000000000000000000000090611c7a908301602090810190840161364b565b145b98975050505050505050565b6000606080611c998787878761203f565b80519198509150600090611cae908690613664565b905060008167ffffffffffffffff811115611ccb57611ccb6124d4565b604051908082528060200260200182016040528015611cf4578160200160208202803683370190505b5090506020810160208302810160208501602089025b82841015611d245781845260209093019290810190611d0a565b508b975092955050505050505b94509492505050565b80471015611da4576040517f08c379a000000000000000000000000000000000000000000000000000000000815260206004820152601d60248201527f416464726573733a20696e73756666696369656e742062616c616e636500000060448201526064016103ed565b60008273ffffffffffffffffffffffffffffffffffffffff168260405160006040518083038185875af1925050503d8060008114611dfe576040519150601f19603f3d011682016040523d82523d6000602084013e611e03565b606091505b50509050806109e6576040517f08c379a000000000000000000000000000000000000000000000000000000000815260206004820152603a60248201527f416464726573733a20756e61626c6520746f2073656e642076616c75652c207260448201527f6563697069656e74206d6179206861766520726576657274656400000000000060648201526084016103ed565b60405173ffffffffffffffffffffffffffffffffffffffff808516602483015283166044820152606481018290526114b89085907f23b872dd00000000000000000000000000000000000000000000000000000000906084015b604080517fffffffffffffffffffffffffffffffffffffffffffffffffffffffffffffffe08184030181529190526020810180517bffffffffffffffffffffffffffffffffffffffffffffffffffffffff167fffffffff000000000000000000000000000000000000000000000000000000009093169290921790915261209f565b60405173ffffffffffffffffffffffffffffffffffffffff83166024820152604481018290526109e69084907fa9059cbb0000000000000000000000000000000000000000000000000000000090606401611eee565b6040805160028082526060808301845292600092919060208301908036833750505060208101949094525050604082015290565b60008082516041036120305760208301516040840151606085015160001a612024878285856121ab565b94509450505050612038565b506000905060025b9250929050565b60006060808561204e57600080fd5b6000806020860260208a039950602089035b808b1115612086578a518903612078578a9350612086565b998190039991870191612060565b50508161209257600080fd5b8152969795505050505050565b6000612101826040518060400160405280602081526020017f5361666545524332303a206c6f772d6c6576656c2063616c6c206661696c65648152508573ffffffffffffffffffffffffffffffffffffffff166122c09092919063ffffffff16565b8051909150156109e6578080602001905181019061211f919061369f565b6109e6576040517f08c379a000000000000000000000000000000000000000000000000000000000815260206004820152602a60248201527f5361666545524332303a204552433230206f7065726174696f6e20646964206e60448201527f6f7420737563636565640000000000000000000000000000000000000000000060648201526084016103ed565b6000807f7fffffffffffffffffffffffffffffff5d576e7357a4501ddfe92f46681b20a08311156121e25750600090506003611d31565b8460ff16601b141580156121fa57508460ff16601c14155b1561220b5750600090506004611d31565b6040805160008082526020820180845289905260ff881692820192909252606081018690526080810185905260019060a0016020604051602081039080840390855afa15801561225f573d6000803e3d6000fd5b50506040517fffffffffffffffffffffffffffffffffffffffffffffffffffffffffffffffe0015191505073ffffffffffffffffffffffffffffffffffffffff81166122b357600060019250925050611d31565b9660009650945050505050565b60606122cf84846000856122d7565b949350505050565b606082471015612369576040517f08c379a000000000000000000000000000000000000000000000000000000000815260206004820152602660248201527f416464726573733a20696e73756666696369656e742062616c616e636520666f60448201527f722063616c6c000000000000000000000000000000000000000000000000000060648201526084016103ed565b73ffffffffffffffffffffffffffffffffffffffff85163b6123e7576040517f08c379a000000000000000000000000000000000000000000000000000000000815260206004820152601d60248201527f416464726573733a2063616c6c20746f206e6f6e2d636f6e747261637400000060448201526064016103ed565b6000808673ffffffffffffffffffffffffffffffffffffffff1685876040516124109190613461565b60006040518083038185875af1925050503d806000811461244d576040519150601f19603f3d011682016040523d82523d6000602084013e612452565b606091505b50915091506124628282866119e5565b979650505050505050565b60006020828403121561247f57600080fd5b81357fffffffff000000000000000000000000000000000000000000000000000000008116811461032457600080fd5b73ffffffffffffffffffffffffffffffffffffffff811681146124d157600080fd5b50565b7f4e487b7100000000000000000000000000000000000000000000000000000000600052604160045260246000fd5b6040516060810167ffffffffffffffff81118282101715612526576125266124d4565b60405290565b6040805190810167ffffffffffffffff81118282101715612526576125266124d4565b604051601f82017fffffffffffffffffffffffffffffffffffffffffffffffffffffffffffffffe016810167ffffffffffffffff81118282101715612596576125966124d4565b604052919050565b600082601f8301126125af57600080fd5b813567ffffffffffffffff8111156125c9576125c96124d4565b6125fa60207fffffffffffffffffffffffffffffffffffffffffffffffffffffffffffffffe0601f8401160161254f565b81815284602083860101111561260f57600080fd5b816020850160208301376000918101602001919091529392505050565b6000806000806080858703121561264257600080fd5b843561264d816124af565b9350602085013561265d816124af565b925060408501359150606085013567ffffffffffffffff81111561268057600080fd5b61268c8782880161259e565b91505092959194509250565b600067ffffffffffffffff8211156126b2576126b26124d4565b5060051b60200190565b600082601f8301126126cd57600080fd5b813560206126e26126dd83612698565b61254f565b82815260059290921b8401810191818101908684111561270157600080fd5b8286015b8481101561271c5780358352918301918301612705565b509695505050505050565b60008060006060848603121561273c57600080fd5b833592506020808501359250604085013567ffffffffffffffff8082111561276357600080fd5b818701915087601f83011261277757600080fd5b81356127856126dd82612698565b81815260059190911b8301840190848101908a8311156127a457600080fd5b8585015b83811015612867578035858111156127c05760008081fd5b86016060818e037fffffffffffffffffffffffffffffffffffffffffffffffffffffffffffffffe00112156127f55760008081fd5b6127fd612503565b8882013561280a816124af565b815260408201358781111561281f5760008081fd5b61282d8f8b8386010161259e565b8a830152506060820135878111156128455760008081fd5b6128538f8b838601016126bc565b6040830152508452509186019186016127a8565b508096505050505050509250925092565b600081518084526020808501945080840160005b838110156128e5578151805173ffffffffffffffffffffffffffffffffffffffff9081168952848201518116858a015260408083015190911690890152606090810151908801526080909601959082019060010161288c565b509495945050505050565b600081518084526020808501945080840160005b838110156128e5578151805173ffffffffffffffffffffffffffffffffffffffff9081168952848201518116858a015260408083015190911690890152606080820151908901526080908101519088015260a09096019590820190600101612904565b60208082528251608083830152805160a0840181905260009291820190839060c08601905b808310156129db578351805173ffffffffffffffffffffffffffffffffffffffff908116845286820151168684015260409081015190830152928401926001929092019160609091019061298c565b508387015193507fffffffffffffffffffffffffffffffffffffffffffffffffffffffffffffffe0925082868203016040870152612a198185612878565b93505050604085015181858403016060860152612a368382612878565b925050606085015181858403016080860152612a5283826128f0565b9695505050505050565b600060208284031215612a6e57600080fd5b813567ffffffffffffffff811115612a8557600080fd5b82016040818503121561032457600080fd5b60008060208385031215612aaa57600080fd5b823567ffffffffffffffff80821115612ac257600080fd5b818501915085601f830112612ad657600080fd5b813581811115612ae557600080fd5b8660208260051b8501011115612afa57600080fd5b60209290920196919550909350505050565b60005b83811015612b27578181015183820152602001612b0f565b50506000910152565b60008151808452612b48816020860160208601612b0c565b601f017fffffffffffffffffffffffffffffffffffffffffffffffffffffffffffffffe0169290920160200192915050565b600081518084526020808501808196508360051b8101915082860160005b85811015612bc2578284038952612bb0848351612b30565b98850198935090840190600101612b98565b5091979650505050505050565b6020815260006103246020830184612b7a565b600080600080600060a08688031215612bfa57600080fd5b8535612c05816124af565b94506020860135612c15816124af565b9350604086013567ffffffffffffffff80821115612c3257600080fd5b612c3e89838a016126bc565b94506060880135915080821115612c5457600080fd5b612c6089838a016126bc565b93506080880135915080821115612c7657600080fd5b50612c838882890161259e565b9150509295509295909350565b600080600080600060a08688031215612ca857600080fd5b8535612cb3816124af565b94506020860135612cc3816124af565b93506040860135925060608601359150608086013567ffffffffffffffff811115612ced57600080fd5b612c838882890161259e565b600082357fffffffffffffffffffffffffffffffffffffffffffffffffffffffffffffffa1833603018112612d2d57600080fd5b9190910192915050565b600060608236031215612d4957600080fd5b612d51612503565b612d5b83356124af565b82358152602080840135612d6e816124af565b8282015260408481013567ffffffffffffffff80821115612d8e57600080fd5b9086019036601f830112612da157600080fd5b8135612daf6126dd82612698565b81815260059190911b83018501908581019036831115612dce57600080fd5b8685015b83811015612ee4578481351115612de857600080fd5b80358601877fffffffffffffffffffffffffffffffffffffffffffffffffffffffffffffffe0823603011215612e1d57600080fd5b612e2561252c565b8982013587811115612e3657600080fd5b820136603f820112612e4757600080fd5b8a810135612e576126dd82612698565b81815260059190911b82018b01908c81019036831115612e7657600080fd5b8c84015b83811015612eac578b81351115612e9057600080fd5b612e9f368f833588010161259e565b8352918e01918e01612e7a565b5084525050508189013587811115612ec357600080fd5b612ed1368c838601016126bc565b828c015250845250918701918701612dd2565b509487019490945250939695505050505050565b600082357fffffffffffffffffffffffffffffffffffffffffffffffffffffffffffffffc1833603018112612f2c57600080fd5b90910192915050565b60008083357fffffffffffffffffffffffffffffffffffffffffffffffffffffffffffffffe1843603018112612f6a57600080fd5b830160208101925035905067ffffffffffffffff811115612f8a57600080fd5b8060051b360382131561203857600080fd5b8183528181602085013750600060208284010152600060207fffffffffffffffffffffffffffffffffffffffffffffffffffffffffffffffe0601f840116840101905092915050565b81835260007f07ffffffffffffffffffffffffffffffffffffffffffffffffffffffffffffff83111561301757600080fd5b8260051b80836020870137939093016020019392505050565b6000604083016130408384612f35565b604086528281845260608701905060608260051b88010193508260005b8381101561310c577fffffffffffffffffffffffffffffffffffffffffffffffffffffffffffffffa089870301835281357fffffffffffffffffffffffffffffffffffffffffffffffffffffffffffffffe18636030181126130be57600080fd5b8501602081810191359067ffffffffffffffff8211156130dd57600080fd5b8136038313156130ec57600080fd5b6130f7898385612f9c565b9850948501949390930192505060010161305d565b505050505061311e6020840184612f35565b8583036020870152612a52838284612fe5565b600073ffffffffffffffffffffffffffffffffffffffff8085168352602060408185015261315f8586612ef8565b6040808601526131726080860182613030565b9050818601357fffffffffffffffffffffffffffffffffffffffffffffffffffffffffffffffa18736030181126131a857600080fd5b86810190507fffffffffffffffffffffffffffffffffffffffffffffffffffffffffffffffc08683030160608701526060820181356131e6816124af565b85168352818401356131f7816124af565b85168385015261320a6040830183612f35565b95509150606060408401528085825260808401905060808660051b85010191508260005b87811015613282577fffffffffffffffffffffffffffffffffffffffffffffffffffffffffffffff808685030183526132708461326b8488612ef8565b613030565b9350918601919086019060010161322e565b50919a9950505050505050505050565b7f4e487b7100000000000000000000000000000000000000000000000000000000600052603260045260246000fd5b60008083357fffffffffffffffffffffffffffffffffffffffffffffffffffffffffffffffe18436030181126132f657600080fd5b83018035915067ffffffffffffffff82111561331157600080fd5b60200191503681900382131561203857600080fd5b60007fffffffffffffffffffffffffffffffffffffffffffffffffffffffffffffffff820361337e577f4e487b7100000000000000000000000000000000000000000000000000000000600052601160045260246000fd5b5060010190565b600081518084526020808501945080840160005b838110156128e557815187529582019590820190600101613399565b60408152600083516040808401526133d06080840182612b7a565b905060208501517fffffffffffffffffffffffffffffffffffffffffffffffffffffffffffffffc084830301606085015261340b8282613385565b9150508281036020840152610bd18185613385565b6000806040838503121561343357600080fd5b825161343e816124af565b6020939093015192949293505050565b6020815260006103246020830184613385565b60008251612d2d818460208701612b0c565b815160009082906020808601845b8381101561349d57815185529382019390820190600101613481565b50929695505050505050565b600060408201848352602060408185015281855180845260608601915060608160051b870101935082870160005b82811015613523577fffffffffffffffffffffffffffffffffffffffffffffffffffffffffffffffa0888703018452613511868351613385565b955092840192908401906001016134d7565b509398975050505050505050565b600082601f83011261354257600080fd5b815160206135526126dd83612698565b82815260059290921b8401810191818101908684111561357157600080fd5b8286015b8481101561271c5780518352918301918301613575565b6000806040838503121561359f57600080fd5b825167ffffffffffffffff808211156135b757600080fd5b6135c386838701613531565b935060208501519150808211156135d957600080fd5b506135e685828601613531565b9150509250929050565b6020815260006103246020830184612b30565b7f4e487b7100000000000000000000000000000000000000000000000000000000600052602160045260246000fd5b8281526040602082015260006122cf6040830184612b30565b60006020828403121561365d57600080fd5b5051919050565b60008261369a577f4e487b7100000000000000000000000000000000000000000000000000000000600052601260045260246000fd5b500490565b6000602082840312156136b157600080fd5b8151801515811461032457600080fdfe416464726573733a206c6f772d6c6576656c2064656c65676174652063616c6c206661696c6564a26469706673582212209d5abe31b53a7656ec3ec7945235fd4b60c6f2c78977b4aabef8034dbb07bbae64736f6c63430008110033",
    "linkReferences": {},
    "deployedLinkReferences": {}
}